{
  "_format": "hh-sol-artifact-1",
  "contractName": "SimpleStorage",
  "sourceName": "contracts/SimpleStorage.sol",
  "abi": [
    {
      "inputs": [
        {
          "internalType": "uint256",
          "name": "",
          "type": "uint256"
        }
      ],
      "name": "changeRecords",
      "outputs": [
        {
          "internalType": "address",
          "name": "user",
          "type": "address"
        },
        {
          "internalType": "uint256",
          "name": "newValue",
          "type": "uint256"
        },
        {
          "internalType": "uint256",
          "name": "timestamp",
          "type": "uint256"
        }
      ],
      "stateMutability": "view",
      "type": "function"
    },
    {
      "inputs": [],
      "name": "getChangeRecords",
      "outputs": [
        {
          "components": [
            {
              "internalType": "address",
              "name": "user",
              "type": "address"
            },
            {
              "internalType": "uint256",
              "name": "newValue",
              "type": "uint256"
            },
            {
              "internalType": "uint256",
              "name": "timestamp",
              "type": "uint256"
            }
          ],
          "internalType": "struct SimpleStorage.ChangeRecord[]",
          "name": "",
          "type": "tuple[]"
        }
      ],
      "stateMutability": "view",
      "type": "function"
    },
    {
      "inputs": [],
      "name": "getValue",
      "outputs": [
        {
          "internalType": "uint256",
          "name": "",
          "type": "uint256"
        }
      ],
      "stateMutability": "view",
      "type": "function"
    },
    {
      "inputs": [
        {
          "internalType": "uint256",
          "name": "_value",
          "type": "uint256"
        }
      ],
      "name": "setValue",
      "outputs": [],
      "stateMutability": "nonpayable",
      "type": "function"
    }
  ],
  "bytecode": "0x608060405234801561001057600080fd5b5061053b806100206000396000f3fe608060405234801561001057600080fd5b506004361061004c5760003560e01c80632096525514610051578063312de2fb1461006f57806355241077146100a1578063b0b323e6146100bd575b600080fd5b6100596100db565b60405161006691906102e3565b60405180910390f35b6100896004803603810190610084919061032f565b6100e4565b6040516100989392919061039d565b60405180910390f35b6100bb60048036038101906100b6919061032f565b61013e565b005b6100c5610201565b6040516100d291906104e3565b60405180910390f35b60008054905090565b600181815481106100f457600080fd5b90600052602060002090600302016000915090508060000160009054906101000a900473ffffffffffffffffffffffffffffffffffffffff16908060010154908060020154905083565b80600081905550600160405180606001604052803373ffffffffffffffffffffffffffffffffffffffff16815260200183815260200142815250908060018154018082558091505060019003906000526020600020906003020160009091909190915060008201518160000160006101000a81548173ffffffffffffffffffffffffffffffffffffffff021916908373ffffffffffffffffffffffffffffffffffffffff1602179055506020820151816001015560408201518160020155505050565b60606001805480602002602001604051908101604052809291908181526020016000905b828210156102c157838290600052602060002090600302016040518060600160405290816000820160009054906101000a900473ffffffffffffffffffffffffffffffffffffffff1673ffffffffffffffffffffffffffffffffffffffff1673ffffffffffffffffffffffffffffffffffffffff1681526020016001820154815260200160028201548152505081526020019060010190610225565b50505050905090565b6000819050919050565b6102dd816102ca565b82525050565b60006020820190506102f860008301846102d4565b92915050565b600080fd5b61030c816102ca565b811461031757600080fd5b50565b60008135905061032981610303565b92915050565b600060208284031215610345576103446102fe565b5b60006103538482850161031a565b91505092915050565b600073ffffffffffffffffffffffffffffffffffffffff82169050919050565b60006103878261035c565b9050919050565b6103978161037c565b82525050565b60006060820190506103b2600083018661038e565b6103bf60208301856102d4565b6103cc60408301846102d4565b949350505050565b600081519050919050565b600082825260208201905092915050565b6000819050602082019050919050565b6104098161037c565b82525050565b610418816102ca565b82525050565b6060820160008201516104346000850182610400565b506020820151610447602085018261040f565b50604082015161045a604085018261040f565b50505050565b600061046c838361041e565b60608301905092915050565b6000602082019050919050565b6000610490826103d4565b61049a81856103df565b93506104a5836103f0565b8060005b838110156104d65781516104bd8882610460565b97506104c883610478565b9250506001810190506104a9565b5085935050505092915050565b600060208201905081810360008301526104fd8184610485565b90509291505056fea26469706673582212205b493bf896059de3c10b93509f327ae3a2d3e018bf19318d0da3542e8dbaf16364736f6c63430008180033",
  "linkReferences": {},
  "deployedLinkReferences": {},
  "address": "0x2d1D57182cf6e696Bb62624d351200e55Ae22558"
}